{"abi":[{"type":"function","name":"count","inputs":[],"outputs":[{"name":"","type":"uint256","internalType":"uint256"}],"stateMutability":"view"},{"type":"function","name":"dec","inputs":[],"outputs":[],"stateMutability":"nonpayable"},{"type":"function","name":"get","inputs":[],"outputs":[{"name":"","type":"uint256","internalType":"uint256"}],"stateMutability":"view"},{"type":"function","name":"inc","inputs":[],"outputs":[],"stateMutability":"nonpayable"}],"bytecode":{"object":"0x608060405234801561001057600080fd5b50610113806100206000396000f3fe6080604052348015600f57600080fd5b506004361060465760003560e01c806306661abd14604b578063371303c01460655780636d4ce63c14606d578063b3bcfa82146074575b600080fd5b605360005481565b60405190815260200160405180910390f35b606b607a565b005b6000546053565b606b6091565b6001600080828254608a919060b7565b9091555050565b6001600080828254608a919060cd565b634e487b7160e01b600052601160045260246000fd5b8082018082111560c75760c760a1565b92915050565b8181038181111560c75760c760a156fea2646970667358221220970a9074c8310f30ca467c52e02141a6a0472dc05c973b75148f962d5623366d64736f6c63430008150033","linkReferences":{}},"methodIdentifiers":{"count()":"06661abd","dec()":"b3bcfa82","get()":"6d4ce63c","inc()":"371303c0"},"id":4}