{"abi":[{"type":"constructor","inputs":[],"stateMutability":"nonpayable"},{"type":"function","name":"addExpert","inputs":[{"name":"_address","type":"address","internalType":"address"}],"outputs":[],"stateMutability":"nonpayable"},{"type":"function","name":"createProject","inputs":[{"name":"_projectAddress","type":"address","internalType":"address"}],"outputs":[],"stateMutability":"nonpayable"},{"type":"function","name":"creator","inputs":[],"outputs":[{"name":"","type":"address","internalType":"address"}],"stateMutability":"view"},{"type":"function","name":"experts","inputs":[{"name":"","type":"uint256","internalType":"uint256"}],"outputs":[{"name":"","type":"address","internalType":"address"}],"stateMutability":"view"},{"type":"function","name":"isAddressInList","inputs":[{"name":"_address","type":"address","internalType":"address"}],"outputs":[{"name":"","type":"bool","internalType":"bool"}],"stateMutability":"view"},{"type":"function","name":"projectlist","inputs":[{"name":"","type":"uint256","internalType":"uint256"}],"outputs":[{"name":"","type":"address","internalType":"address"}],"stateMutability":"view"},{"type":"function","name":"reputationUpdate","inputs":[{"name":"_experts","type":"address[]","internalType":"address[]"},{"name":"_newreputations","type":"uint256[]","internalType":"uint256[]"}],"outputs":[],"stateMutability":"nonpayable"},{"type":"function","name":"reputations","inputs":[{"name":"","type":"address","internalType":"address"}],"outputs":[{"name":"","type":"uint256","internalType":"uint256"}],"stateMutability":"view"}],"bytecode":{"object":"0x608060405234801561001057600080fd5b50600380546001600160a01b031916331790556104e7806100326000396000f3fe608060405234801561001057600080fd5b50600436106100885760003560e01c8063224d5dd21161005b578063224d5dd2146101135780634fcaee77146101705780639aba046c146101cf578063b7425f4c146101f257600080fd5b806302d05d3f1461008d578063060d1d3a146100bd57806306fa15a7146100d25780631bb38ff214610100575b600080fd5b6003546100a0906001600160a01b031681565b6040516001600160a01b0390911681526020015b60405180910390f35b6100d06100cb3660046103bf565b610205565b005b6100f26100e036600461042b565b60026020526000908152604090205481565b6040519081526020016100b4565b6100a061010e36600461045b565b6102d0565b6100d061012136600461042b565b600080546001810182559080527f290decd9548b62a8d60345a988386fc84ba6bc95484008f6362f93160ef3e5630180546001600160a01b0319166001600160a01b0392909216919091179055565b6100d061017e36600461042b565b6001805480820182556000919091527fb10e2d527612073b26eecdfd717e6a320cf44b4afac2b0732d9fcbe2b7fa0cf60180546001600160a01b0319166001600160a01b0392909216919091179055565b6101e26101dd36600461042b565b6102fa565b60405190151581526020016100b4565b6100a061020036600461045b565b610363565b6003546001600160a01b0316331461021c57600080fd5b60005b6001548110156102c95761025385858381811061023e5761023e610474565b90506020020160208101906101dd919061042b565b156102b75782828281811061026a5761026a610474565b905060200201356002600087878581811061028757610287610474565b905060200201602081019061029c919061042b565b6001600160a01b031681526020810191909152604001600020555b806102c18161048a565b91505061021f565b5050505050565b600081815481106102e057600080fd5b6000918252602090912001546001600160a01b0316905081565b6000805b60015481101561035a57826001600160a01b03166001828154811061032557610325610474565b6000918252602090912001546001600160a01b0316036103485750600192915050565b806103528161048a565b9150506102fe565b50600092915050565b600181815481106102e057600080fd5b60008083601f84011261038557600080fd5b50813567ffffffffffffffff81111561039d57600080fd5b6020830191508360208260051b85010111156103b857600080fd5b9250929050565b600080600080604085870312156103d557600080fd5b843567ffffffffffffffff808211156103ed57600080fd5b6103f988838901610373565b9096509450602087013591508082111561041257600080fd5b5061041f87828801610373565b95989497509550505050565b60006020828403121561043d57600080fd5b81356001600160a01b038116811461045457600080fd5b9392505050565b60006020828403121561046d57600080fd5b5035919050565b634e487b7160e01b600052603260045260246000fd5b6000600182016104aa57634e487b7160e01b600052601160045260246000fd5b506001019056fea26469706673582212204c3c0644cb02d89f66142c1c8ad213f0067007148e4ca523355a59b53870839e64736f6c63430008150033","linkReferences":{}},"methodIdentifiers":{"addExpert(address)":"4fcaee77","createProject(address)":"224d5dd2","creator()":"02d05d3f","experts(uint256)":"b7425f4c","isAddressInList(address)":"9aba046c","projectlist(uint256)":"1bb38ff2","reputationUpdate(address[],uint256[])":"060d1d3a","reputations(address)":"06fa15a7"},"id":4}