{"abi":[{"type":"constructor","inputs":[{"name":"_addressExpertOracle","type":"address","internalType":"address"}],"stateMutability":"nonpayable"},{"type":"function","name":"advices","inputs":[{"name":"","type":"address","internalType":"address"}],"outputs":[{"name":"","type":"uint256","internalType":"uint256"}],"stateMutability":"view"},{"type":"function","name":"creator","inputs":[],"outputs":[{"name":"","type":"address","internalType":"address"}],"stateMutability":"view"},{"type":"function","name":"expertAdvice","inputs":[{"name":"_advice","type":"uint256","internalType":"uint256"}],"outputs":[],"stateMutability":"nonpayable"},{"type":"function","name":"expertOracle","inputs":[],"outputs":[{"name":"","type":"address","internalType":"contract ExpertOracle"}],"stateMutability":"view"},{"type":"function","name":"expertValuation","inputs":[{"name":"_valuation","type":"uint256","internalType":"uint256"}],"outputs":[],"stateMutability":"nonpayable"},{"type":"function","name":"getInvestment","inputs":[],"outputs":[{"name":"","type":"uint256","internalType":"uint256"}],"stateMutability":"view"},{"type":"function","name":"getPerformance","inputs":[],"outputs":[{"name":"","type":"uint256","internalType":"uint256"}],"stateMutability":"view"},{"type":"function","name":"investment","inputs":[],"outputs":[{"name":"","type":"uint256","internalType":"uint256"}],"stateMutability":"view"},{"type":"function","name":"investmentDecide","inputs":[{"name":"_investment","type":"uint256","internalType":"uint256"}],"outputs":[],"stateMutability":"nonpayable"},{"type":"function","name":"performance","inputs":[],"outputs":[{"name":"","type":"uint256","internalType":"uint256"}],"stateMutability":"view"},{"type":"function","name":"projectFeedback","inputs":[{"name":"_performance","type":"uint256","internalType":"uint256"}],"outputs":[],"stateMutability":"nonpayable"},{"type":"function","name":"valuations","inputs":[{"name":"","type":"address","internalType":"address"}],"outputs":[{"name":"","type":"uint256","internalType":"uint256"}],"stateMutability":"view"}],"bytecode":{"object":"0x608060405234801561001057600080fd5b506040516104cb3803806104cb83398101604081905261002f916100ad565b600580546001600160a01b0383166001600160a01b031991821681179092556006805490911633179055604051631126aee960e11b815230600482015263224d5dd290602401600060405180830381600087803b15801561008f57600080fd5b505af11580156100a3573d6000803e3d6000fd5b50505050506100dd565b6000602082840312156100bf57600080fd5b81516001600160a01b03811681146100d657600080fd5b9392505050565b6103df806100ec6000396000f3fe608060405234801561001057600080fd5b50600436106100b45760003560e01c806345fbfbca1161007157806345fbfbca14610167578063a5f9392d14610170578063c3f1a71014610179578063dfe86c0714610181578063f4102afd14610194578063f7cd55d4146101a757600080fd5b806302d05d3f146100b957806316857892146100e957806328a19f6e146101175780632b9e5a66146101375780632c738e591461014c57806342de4e9c1461015f575b600080fd5b6006546100cc906001600160a01b031681565b6040516001600160a01b0390911681526020015b60405180910390f35b6101096100f736600461033e565b60046020526000908152604090205481565b6040519081526020016100e0565b61010961012536600461033e565b60036020526000908152604090205481565b61014a61014536600461036e565b6101ba565b005b61014a61015a36600461036e565b610241565b61010961025d565b61010960015481565b61010960025481565b61010961027e565b61014a61018f36600461036e565b61029f565b61014a6101a236600461036e565b6102bb565b6005546100cc906001600160a01b031681565b6005546040516326ae811b60e21b81523360048201526001600160a01b0390911690639aba046c90602401602060405180830381865afa158015610202573d6000803e3d6000fd5b505050506040513d601f19601f820116820180604052508101906102269190610387565b1561023e573360009081526004602052604090208190555b50565b6006546001600160a01b0316331461025857600080fd5b600255565b6006546000906001600160a01b0316331461027757600080fd5b5060025490565b6006546000906001600160a01b0316331461029857600080fd5b5060015490565b6006546001600160a01b031633146102b657600080fd5b600155565b6005546040516326ae811b60e21b81523360048201526001600160a01b0390911690639aba046c90602401602060405180830381865afa158015610303573d6000803e3d6000fd5b505050506040513d601f19601f820116820180604052508101906103279190610387565b1561023e5733600090815260036020526040902055565b60006020828403121561035057600080fd5b81356001600160a01b038116811461036757600080fd5b9392505050565b60006020828403121561038057600080fd5b5035919050565b60006020828403121561039957600080fd5b8151801515811461036757600080fdfea26469706673582212201f034aa3a3c770d9c994ca1d3397a2af20d7476f3b84db2800a9ee0dfd87c63b64736f6c63430008150033","linkReferences":{}},"methodIdentifiers":{"advices(address)":"28a19f6e","creator()":"02d05d3f","expertAdvice(uint256)":"f4102afd","expertOracle()":"f7cd55d4","expertValuation(uint256)":"2b9e5a66","getInvestment()":"c3f1a710","getPerformance()":"42de4e9c","investment()":"45fbfbca","investmentDecide(uint256)":"dfe86c07","performance()":"a5f9392d","projectFeedback(uint256)":"2c738e59","valuations(address)":"16857892"},"id":5}